:0400000036EF05F0E2
:1000080000C015F0F2A202D04982F292F0A002D00C
:100018004980F090F2A418D00B0ED76EDC0ED66E85
:10002800800E000A006E800E1918005C05E21904A3
:10003800006E00C019F007D01950000A04E1D59EDF
:10004800FF0E196E4994F2949EA02AD03C0ECF6EF2
:10005800B00ECE6E1850010F006E00C018F0050EDD
:10006800185C1DE3186A3F50010F006E00C03FF096
:10007800040E3F5C14E33F6A800E000A006E800E97
:100088001618005C05E21604006E00C016F007D0D2
:100098001650000A04E1CD90FF0E166E49949E900A
:0600A80015C000F011007C
:1000AE000F0E0C6E470E0D6E0D2EFED70C2EFCD7BE
:0600BE000000000012002A
:0600C40000000000120024
:0A00CA00210E0D6E0D2EFED7120060
:1000D400000173BF02D08C9A01D08C8A73BD02D008
:1000E4008C9801D08C8873BB02D08C9601D08C86FE
:1000F40073B902D08C9401D08C8449B602D08C8020
:1001040001D08C908C82DCDF8C9273B702D08C9AF5
:1001140001D08C8A73B502D08C9801D08C8873B3CB
:1001240002D08C9601D08C8673B102D08C9401D00D
:100134008C8449B602D08C8001D08C908C82C0DF34
:0E0144008C9249A602D0B1DF01D0BDDF1200BF
:0C0152000E0E0D6E0D2EFED700001200E8
:10015E00086A096A100E0C6E01340836093604500E
:10016E00085E0550D8A0053C095ED8B007D00450F3
:10017E0008260550D8B0053C0926D8900036013621
:06018E000C2EEAD712005E
:0C019400499672C073F09CDF498612008F
:1001A0000D6A086A0050D8B4000C04180A6E0ABE22
:1001B0000D1E0B6A04AE02D0041E042A00AE02D04B
:1001C000001E002A005004100A6E0ABE1FD0045000
:1001D000085E003600340836045008260036060E45
:1001E0000C6E00340836045000B0085E00A00826EB
:1001F00000360C2EF6D700A008260BB015D00DAE99
:10020000000C001E002A081E082A000C04AE09D0AB
:1002100000BE04D00050086E006AF1D7006A002AC0
:10022000000C001E0B2AD3D7082A0450085CD8A45F
:0E023000E6D7086A002A00AEE2D7FF0C1200E3
:10023E00030E00016D5D02E1E80E6C5D56E36EC0CB
:10024E00E1FF6FC0E2FF310EE66E010E6E25E16E2C
:10025E00000E6F21E26E300EE66E020E6E25E16E1E
:10026E00000E6F21E26E300EE66E030E6E25E16E0D
:10027E00000E6F21E26E2E0EE66E040E6E25E16EFE
:10028E00000E6F21E26E300EE66E050E6E25E16EEB
:10029E00000E6F21E26EDF0EE66E060E6E25E16E2B
:1002AE00000E6F21E26E430EE66E070E6E25E16EB6
:1002BE00000E6F21E26E200EE66E080E6E25E16EC8
:1002CE00000E6F21E26E200EE66E090E6E25E16EB7
:1002DE00000E6F21E26E200EE66E0A0E6E25E16EA6
:1002EE00000E6F21E26EE66A8BD0640E046E000E75
:1002FE00056E6CC000F06DC001F02ADF300E0026D6
:10030E006EC0E1FF6FC0E2FF00C0E6FF010E6E257A
:10031E00706F000E6F21716F640E046E000E056E0D
:10032E006CC000F06DC001F013DF08C000F009C012
:10033E0001F00A0E046E000E056E0ADF300E002666
:10034E0070C0E1FF71C0E2FF00C0E6FF020E6E2535
:10035E00E16E000E6F21E26E2E0EE66E030E6E251E
:10036E00706F000E6F21716F0A0E046E000E056E17
:10037E006CC000F06DC001F0EBDE08C000F009C0EB
:10038E0001F0300E002670C0E1FF71C0E2FF00C028
:10039E00E6FF040E6E25E16E000E6F21E26EDF0E9B
:1003AE00E66E050E6E25E16E000E6F21E26E430EB7
:1003BE00E66E060E6E25E16E000E6F21E26E200EC9
:1003CE00E66E070E6E25E16E000E6F21E26E200EB8
:1003DE00E66E080E6E25E16E000E6F21E26E200EA7
:1003EE00E66E090E6E25E16E000E6F21E26E200E96
:1003FE00E66E0A0E6E25E16E000E6F21E26EE66A63
:02040E001200DA
:10041000830EC2166CC000F00036009000360090CB
:100420000050C21296DEC282C2A201D0FDD7C4CF54
:0E04300001F0006AC3500012000E011212000B
:10043E00100E4A6E040E4B6E6C0E4C6E000E4D6E10
:10044E00C26A2B1C006E0050C116070EC012C08E61
:04045E00C280120046
:1004620095929590959495969598959A8C928C9054
:100472008C9A8C988C968C9419DE18DE17DE8C86FA
:100482008C848C821EDE8C9211DE8C821ADE8C921F
:100492000DDE8C8216DE8C9209DE8C948C8211DE4B
:1004A2008C9204DE8C820DDE8C928C968C8A8C82ED
:1004B20008DE8C92FBDD8C9A8C848C8202DE8C921C
:1004C2008C948C82FEDD8C92F1DD8C82FADD8C9232
:1004D2008C848C82F6DD8C92E9DD8C948C82F1DD49
:1004E2008C928C8A8C888C868C848C82EADD8C92AD
:0604F200DDDD4986120069
:1004F8000900F5CFE6FF0006FBE10106F9E112006D
:100508000B6A0A6A096A086A0E6A033408360450D4
:10051800085E0550D8A0053C095E0650D8A0063CE8
:100528000A5E0750D8A0073C0B5EE86AD8A0010E07
:100538000E5E0336070E0C6E0334083609360A368B
:100548000B360E36045003A012D0085E0550D8A012
:10055800053C095E0650D8A0063C0A5E0750D8A0A4
:10056800073C0B5EE86AD8A0010E0E5E11D0082683
:100578000550D8B0053C09260650D8B0063C0A26D6
:100588000750D8B0073C0B26E86AD8B0010E0E26F3
:1005980003360C2ED1D70234083609360A360B3604
:1005A8000E36045003A012D0085E0550D8A0053CB2
:1005B800095E0650D8A0063C0A5E0750D8A0073C42
:1005C8000B5EE86AD8A0010E0E5E11D00826055011
:1005D800D8B0053C09260650D8B0063C0A26075074
:1005E800D8B0073C0B26E86AD8B0010E0E260236B2
:1005F800070E0C6E0234083609360A360B360E36EC
:10060800045002A012D0085E0550D8A0053C095E2F
:100618000650D8A0063C0A5E0750D8A0073C0B5EDF
:10062800E86AD8A0010E0E5E11D008260550D8B091
:10063800053C09260650D8B0063C0A260750D8B013
:10064800073C0B26E86AD8B0010E0E2602360C2E9F
:10065800D1D70134083609360A360B360E3604501F
:1006680002A012D0085E0550D8A0053C095E0650CD
:10067800D8A0063C0A5E0750D8A0073C0B5EE86A83
:10068800D8A0010E0E5E11D008260550D8B0053C42
:1006980009260650D8B0063C0A260750D8B0073CB1
:1006A8000B26E86AD8B0010E0E260136070E0C6E2E
:1006B8000134083609360A360B360E36045001A0C6
:1006C80012D0085E0550D8A0053C095E0650D8A097
:1006D800063C0A5E0750D8A0073C0B5EE86AD8A023
:1006E800010E0E5E11D008260550D8B0053C09262B
:1006F8000650D8B0063C0A260750D8B0073C0B264F
:10070800E86AD8B0010E0E2601360C2ED1D7003477
:10071800083609360A360B360E36045001A012D0B8
:10072800085E0550D8A0053C095E0650D8A0063CD6
:100738000A5E0750D8A0073C0B5EE86AD8A0010EF5
:100748000E5E11D008260550D8B0053C0926065083
:10075800D8B0063C0A260750D8B0073C0B26E86AF2
:10076800D8B0010E0E260036070E0C6E003408367F
:1007780009360A360B360E36045000A012D0085E31
:100788000550D8A0053C095E0650D8A0063C0A5E74
:100798000750D8A0073C0B5EE86AD8A0010E0E5E91
:1007A80011D008260550D8B0053C09260650D8B007
:1007B800063C0A260750D8B0073C0B26E86AD8B092
:1007C800010E0E2600360C2ED1D700B00ED00450E4
:1007D80008260550D8B0053C09260650D8B0063C76
:0C07E8000A260750D8B0073C0B26120070
:1007F4006DC0E1FF6EC0E2FF520EE66E010E000115
:100804006D25E16E000E6E21E26E650EE66E020E3F
:100814006D25E16E000E6E21E26E730EE66E030E20
:100824006D25E16E000E6E21E26E740EE66E040E0E
:100834006D25E16E000E6E21E26E610EE66E050E10
:100844006D25E16E000E6E21E26E6D0EE66E060EF3
:100854006D25E16E000E6E21E26E3A0EE66E800E9C
:100864006C19006E800E000A005CD8A06C6B800EC0
:100874006C19006E800E0A0A005C39E3070E6D25C0
:10088400E16E000E6E21E26E200EE66E080E6D25FE
:10089400E16E000E6E21E26E200EE66E090E6D25ED
:1008A4006F6F000E6E21706F0A0E046E6CC000F044
:1008B40075DC300E00266FC0E1FF70C0E2FF00C09F
:1008C400E6FF0A0E6D256F6F000E6E21706F0A0E23
:1008D400046E6CC000F062DC08C000F0300E00262C
:1008E4006FC0E1FF70C0E2FF00C0E6FF23D0070E37
:1008F4006D25E16E000E6E21E26E200EE66E080E8E
:100904006D25E16E000E6E21E26E200EE66E090E7C
:100914006D25E16E000E6E21E26E200EE66E0A0E6B
:100924006D25E16E000E6E21E26E300E6C25006EB8
:1009340000C0E6FF0B0E6D25E16E000E6E21E26E27
:10094400730EE66E0C0E6D25E16E000E6E21E26EE6
:10095400200EE66E0D0E6D25E16E000E6E21E26E28
:10096400200EE66E0E0E6D25E16E000E6E21E26E17
:10097400200EE66E0F0E6D25E16E000E6E21E26E06
:10098400200EE66E100E6D25E16E000E6E21E26EF5
:04099400E66A1200FD
:1009980010D0800E00016C6F1AD0C00E6C6F17D08B
:1009A800940E6C6F14D0D40E6C6F11D0800E6C6FD7
:1009B8000ED000016C51010AECE06C51020AEDE026
:1009C8006C51030AEDE06C51040AEDE0EFD76D05B8
:1009D800006E6C51002600C06CF000C073F06AEC29
:1009E80000F04996706B70516E25E96E000E6F210C
:1009F800EA6EEE520CE070516E25E96E000E6F2122
:100A0800EA6EEECF72F0CAEC00F0702BECD7498694
:020A18001200CA
:100A1A00220E0C6E086A096A0A6A0B6A0C06D8B4B6
:100A2A001FD0D8900B320A3209320832033202320E
:100A3A0001320032D8A0F2D70C06D8B409D004503B
:100A4A0008260550092206500A2207500B22EAD727
:100A5A00045008260550092206500A2207500B2284
:020A6A00120078
:100A6C0048EC06F0070EB46E9380938292809490BB
:100A7C008B90F1DC010E0001736F6AEC00F00C0E30
:100A8C00736F6AEC00F0D5DC3A0EC16EF19CF19AF2
:100A9C00F288F086F28A9D80F28CF28E499449920B
:100AAC00499049A214D0340E0C6EF10E0D6E0D2E21
:100ABC00FED70C2EFCD70000000081B007D049B443
:100ACC0005D01752010ED8A4000E176E499249A0FA
:100ADC002ED0340E0C6EF10E0D6E0D2EFED70C2E8C
:100AEC00FCD70000000081B221D049B41FD049844A
:100AFC001750000A0FE10A0E166EFF0E196E186AD7
:100B0C003F6A100ECD6E3C0ECF6EB00ECE6ECD8009
:100B1C00D59E0CD03C0E196EFF0E166E840ED56E43
:100B2C000B0ED76EDC0ED66ED58ECD9049906C6BBD
:100B3C0069DC00C03DF001C03EF0000E026E036E99
:100B4C00E80E046E030E056E000E066E076E5FDF78
:100B5C00FF0E046E030E056E000E066E076ECEDCE5
:100B6C0000C047F001C048F00150010802E10050FC
:100B7C00F40802E28B8001D08B9047C06CF048C027
:100B8C006DF04F0E00016E6F000E6F6F1FEC01F0D9
:100B9C00010E6C6F010E6D6F400E6E6F000E6F6F5D
:100BAC00F5DE010E6C6F070E6D6F4F0E6E6F000E43
:100BBC006F6FECDE49A427D0800E1918006E800EE2
:100BCC00000A005C03E319C04EF00BD0800E16181F
:100BDC00006E800E000A005C03E316C04EF001D0DC
:100BEC004E6A00014EC06CF05B0E6D6F000E6E6FA6
:100BFC00FBDD020E6C6F010E6D6F5B0E6E6F000EE7
:100C0C006F6FC4DE16D01750000A0AE1020E6C6F2B
:100C1C00010E6D6F2C0E6E6F000E6F6FB7DE09D06C
:100C2C00020E6C6F010E6D6F1A0E6E6F000E6F6FF1
:100C3C00ADDE020E0B6E040E0C6EBA0E0D6E0D2E8A
:100C4C00FED70C2EFCD70B2EFAD700002AD7FFD7D5
:100C900010EE16F0330E006E010E016E5C0EF66E55
:0E0CA0000C0EF76E000EF86E7CEC02F01200E7
:010C5C00FF98
:010C5D000096
:010C5E000095
:010C5F00FF95
:100C60004D6F646F3A2036307320202020202020E2
:010C70000083
:010C71003052
:100C72004D6F646F3A2031307320202020202020D5
:010C82000071
:020C830000006F
:010C8500006E
:070C860054656D703A200077
:020C8D00000065
:020000040030CA
:0E000000000C1F1EFF8381FF0FC00FE00F409A
:00000001FF
